{
  "_format": "hh-sol-artifact-1",
  "contractName": "DogeClubSVG",
  "sourceName": "contracts/DogeClubSVG.sol",
  "abi": [
    {
      "inputs": [],
      "stateMutability": "nonpayable",
      "type": "constructor"
    },
    {
      "anonymous": false,
      "inputs": [
        {
          "indexed": true,
          "internalType": "address",
          "name": "owner",
          "type": "address"
        },
        {
          "indexed": true,
          "internalType": "address",
          "name": "approved",
          "type": "address"
        },
        {
          "indexed": true,
          "internalType": "uint256",
          "name": "tokenId",
          "type": "uint256"
        }
      ],
      "name": "Approval",
      "type": "event"
    },
    {
      "anonymous": false,
      "inputs": [
        {
          "indexed": true,
          "internalType": "address",
          "name": "owner",
          "type": "address"
        },
        {
          "indexed": true,
          "internalType": "address",
          "name": "operator",
          "type": "address"
        },
        {
          "indexed": false,
          "internalType": "bool",
          "name": "approved",
          "type": "bool"
        }
      ],
      "name": "ApprovalForAll",
      "type": "event"
    },
    {
      "anonymous": false,
      "inputs": [
        {
          "indexed": true,
          "internalType": "address",
          "name": "previousOwner",
          "type": "address"
        },
        {
          "indexed": true,
          "internalType": "address",
          "name": "newOwner",
          "type": "address"
        }
      ],
      "name": "OwnershipTransferred",
      "type": "event"
    },
    {
      "anonymous": false,
      "inputs": [
        {
          "indexed": true,
          "internalType": "address",
          "name": "from",
          "type": "address"
        },
        {
          "indexed": true,
          "internalType": "address",
          "name": "to",
          "type": "address"
        },
        {
          "indexed": true,
          "internalType": "uint256",
          "name": "tokenId",
          "type": "uint256"
        }
      ],
      "name": "Transfer",
      "type": "event"
    },
    {
      "inputs": [
        {
          "internalType": "address",
          "name": "to",
          "type": "address"
        },
        {
          "internalType": "uint256",
          "name": "tokenId",
          "type": "uint256"
        }
      ],
      "name": "approve",
      "outputs": [],
      "stateMutability": "nonpayable",
      "type": "function"
    },
    {
      "inputs": [
        {
          "internalType": "address",
          "name": "owner",
          "type": "address"
        }
      ],
      "name": "balanceOf",
      "outputs": [
        {
          "internalType": "uint256",
          "name": "",
          "type": "uint256"
        }
      ],
      "stateMutability": "view",
      "type": "function"
    },
    {
      "inputs": [],
      "name": "baseURI",
      "outputs": [
        {
          "internalType": "string",
          "name": "",
          "type": "string"
        }
      ],
      "stateMutability": "view",
      "type": "function"
    },
    {
      "inputs": [
        {
          "internalType": "uint256",
          "name": "",
          "type": "uint256"
        }
      ],
      "name": "chubbiness",
      "outputs": [
        {
          "internalType": "uint256",
          "name": "",
          "type": "uint256"
        }
      ],
      "stateMutability": "view",
      "type": "function"
    },
    {
      "inputs": [
        {
          "internalType": "uint256",
          "name": "",
          "type": "uint256"
        }
      ],
      "name": "color",
      "outputs": [
        {
          "internalType": "bytes3",
          "name": "",
          "type": "bytes3"
        }
      ],
      "stateMutability": "view",
      "type": "function"
    },
    {
      "inputs": [
        {
          "internalType": "uint256",
          "name": "tokenId",
          "type": "uint256"
        }
      ],
      "name": "getApproved",
      "outputs": [
        {
          "internalType": "address",
          "name": "",
          "type": "address"
        }
      ],
      "stateMutability": "view",
      "type": "function"
    },
    {
      "inputs": [
        {
          "internalType": "address",
          "name": "owner",
          "type": "address"
        },
        {
          "internalType": "address",
          "name": "operator",
          "type": "address"
        }
      ],
      "name": "isApprovedForAll",
      "outputs": [
        {
          "internalType": "bool",
          "name": "",
          "type": "bool"
        }
      ],
      "stateMutability": "view",
      "type": "function"
    },
    {
      "inputs": [],
      "name": "mintItem",
      "outputs": [
        {
          "internalType": "uint256",
          "name": "",
          "type": "uint256"
        }
      ],
      "stateMutability": "nonpayable",
      "type": "function"
    },
    {
      "inputs": [
        {
          "internalType": "string",
          "name": "tokenURI",
          "type": "string"
        },
        {
          "internalType": "string",
          "name": "_upoba",
          "type": "string"
        }
      ],
      "name": "mintU",
      "outputs": [
        {
          "internalType": "uint256",
          "name": "",
          "type": "uint256"
        }
      ],
      "stateMutability": "nonpayable",
      "type": "function"
    },
    {
      "inputs": [],
      "name": "name",
      "outputs": [
        {
          "internalType": "string",
          "name": "",
          "type": "string"
        }
      ],
      "stateMutability": "view",
      "type": "function"
    },
    {
      "inputs": [],
      "name": "owner",
      "outputs": [
        {
          "internalType": "address",
          "name": "",
          "type": "address"
        }
      ],
      "stateMutability": "view",
      "type": "function"
    },
    {
      "inputs": [
        {
          "internalType": "uint256",
          "name": "tokenId",
          "type": "uint256"
        }
      ],
      "name": "ownerOf",
      "outputs": [
        {
          "internalType": "address",
          "name": "",
          "type": "address"
        }
      ],
      "stateMutability": "view",
      "type": "function"
    },
    {
      "inputs": [
        {
          "internalType": "uint256",
          "name": "id",
          "type": "uint256"
        }
      ],
      "name": "renderTokenById",
      "outputs": [
        {
          "internalType": "string",
          "name": "",
          "type": "string"
        }
      ],
      "stateMutability": "view",
      "type": "function"
    },
    {
      "inputs": [],
      "name": "renounceOwnership",
      "outputs": [],
      "stateMutability": "nonpayable",
      "type": "function"
    },
    {
      "inputs": [
        {
          "internalType": "address",
          "name": "from",
          "type": "address"
        },
        {
          "internalType": "address",
          "name": "to",
          "type": "address"
        },
        {
          "internalType": "uint256",
          "name": "tokenId",
          "type": "uint256"
        }
      ],
      "name": "safeTransferFrom",
      "outputs": [],
      "stateMutability": "nonpayable",
      "type": "function"
    },
    {
      "inputs": [
        {
          "internalType": "address",
          "name": "from",
          "type": "address"
        },
        {
          "internalType": "address",
          "name": "to",
          "type": "address"
        },
        {
          "internalType": "uint256",
          "name": "tokenId",
          "type": "uint256"
        },
        {
          "internalType": "bytes",
          "name": "_data",
          "type": "bytes"
        }
      ],
      "name": "safeTransferFrom",
      "outputs": [],
      "stateMutability": "nonpayable",
      "type": "function"
    },
    {
      "inputs": [
        {
          "internalType": "address",
          "name": "operator",
          "type": "address"
        },
        {
          "internalType": "bool",
          "name": "approved",
          "type": "bool"
        }
      ],
      "name": "setApprovalForAll",
      "outputs": [],
      "stateMutability": "nonpayable",
      "type": "function"
    },
    {
      "inputs": [
        {
          "internalType": "bytes4",
          "name": "interfaceId",
          "type": "bytes4"
        }
      ],
      "name": "supportsInterface",
      "outputs": [
        {
          "internalType": "bool",
          "name": "",
          "type": "bool"
        }
      ],
      "stateMutability": "view",
      "type": "function"
    },
    {
      "inputs": [],
      "name": "symbol",
      "outputs": [
        {
          "internalType": "string",
          "name": "",
          "type": "string"
        }
      ],
      "stateMutability": "view",
      "type": "function"
    },
    {
      "inputs": [
        {
          "internalType": "uint256",
          "name": "index",
          "type": "uint256"
        }
      ],
      "name": "tokenByIndex",
      "outputs": [
        {
          "internalType": "uint256",
          "name": "",
          "type": "uint256"
        }
      ],
      "stateMutability": "view",
      "type": "function"
    },
    {
      "inputs": [
        {
          "internalType": "address",
          "name": "owner",
          "type": "address"
        },
        {
          "internalType": "uint256",
          "name": "index",
          "type": "uint256"
        }
      ],
      "name": "tokenOfOwnerByIndex",
      "outputs": [
        {
          "internalType": "uint256",
          "name": "",
          "type": "uint256"
        }
      ],
      "stateMutability": "view",
      "type": "function"
    },
    {
      "inputs": [
        {
          "internalType": "uint256",
          "name": "id",
          "type": "uint256"
        }
      ],
      "name": "tokenURI",
      "outputs": [
        {
          "internalType": "string",
          "name": "",
          "type": "string"
        }
      ],
      "stateMutability": "view",
      "type": "function"
    },
    {
      "inputs": [],
      "name": "totalSupply",
      "outputs": [
        {
          "internalType": "uint256",
          "name": "",
          "type": "uint256"
        }
      ],
      "stateMutability": "view",
      "type": "function"
    },
    {
      "inputs": [
        {
          "internalType": "address",
          "name": "from",
          "type": "address"
        },
        {
          "internalType": "address",
          "name": "to",
          "type": "address"
        },
        {
          "internalType": "uint256",
          "name": "tokenId",
          "type": "uint256"
        }
      ],
      "name": "transferFrom",
      "outputs": [],
      "stateMutability": "nonpayable",
      "type": "function"
    },
    {
      "inputs": [
        {
          "internalType": "address",
          "name": "newOwner",
          "type": "address"
        }
      ],
      "name": "transferOwnership",
      "outputs": [],
      "stateMutability": "nonpayable",
      "type": "function"
    },
    {
      "inputs": [
        {
          "internalType": "uint256",
          "name": "",
          "type": "uint256"
        }
      ],
      "name": "upoba",
      "outputs": [
        {
          "internalType": "string",
          "name": "",
          "type": "string"
        }
      ],
      "stateMutability": "view",
      "type": "function"
    }
  ],
  "bytecode": "0x6080604052426201518001600f553480156200001a57600080fd5b5060408051808201825260088152672237b3b2a1b63ab160c11b60208083019190915282518084019093526002835261444360f01b90830152906200006f6301ffc9a760e01b6001600160e01b036200015816565b815162000084906006906020850190620001e2565b5080516200009a906007906020840190620001e2565b50620000b66380ac58cd60e01b6001600160e01b036200015816565b620000d1635b5e139f60e01b6001600160e01b036200015816565b620000ec63780e9d6360e01b6001600160e01b036200015816565b5060009050620001046001600160e01b03620001dd16565b600a80546001600160a01b0319166001600160a01b038316908117909155604051919250906000907f8be0079c531659141344cd1fd0a4f28419497f9722a3daafe3b4186f6b6457e0908290a35062000284565b6001600160e01b03198082161415620001b8576040805162461bcd60e51b815260206004820152601c60248201527f4552433136353a20696e76616c696420696e7465726661636520696400000000604482015290519081900360640190fd5b6001600160e01b0319166000908152602081905260409020805460ff19166001179055565b335b90565b828054600181600116156101000203166002900490600052602060002090601f016020900481019282601f106200022557805160ff191683800117855562000255565b8280016001018555821562000255579182015b828111156200025557825182559160200191906001019062000238565b506200026392915062000267565b5090565b620001df91905b808211156200026357600081556001016200026e565b61308280620002946000396000f3fe608060405234801561001057600080fd5b506004361061018e5760003560e01c806378a79771116100de578063b88d4fde11610097578063e985e9c511610071578063e985e9c514610696578063eb93406b146106c4578063f2fde38b146106cc578063faa204e1146106f25761018e565b8063b88d4fde14610579578063c87b56dd1461063f578063d4e28c9c1461065c5761018e565b806378a79771146103d45780638da5cb5b1461050157806395d89b4114610509578063a22cb46514610511578063a2d6c6da1461053f578063b7d9a7561461055c5761018e565b80632f745c591161014b5780636352211e116101255780636352211e146103815780636c0360eb1461039e57806370a08231146103a6578063715018a6146103cc5761018e565b80632f745c591461030257806342842e0e1461032e5780634f6ccce7146103645761018e565b806301ffc9a71461019357806306fdde03146101ce578063081812fc1461024b578063095ea7b31461028457806318160ddd146102b257806323b872dd146102cc575b600080fd5b6101ba600480360360208110156101a957600080fd5b50356001600160e01b03191661070f565b604080519115158252519081900360200190f35b6101d6610732565b6040805160208082528351818301528351919283929083019185019080838360005b838110156102105781810151838201526020016101f8565b50505050905090810190601f16801561023d5780820380516001836020036101000a031916815260200191505b509250505060405180910390f35b6102686004803603602081101561026157600080fd5b50356107c9565b604080516001600160a01b039092168252519081900360200190f35b6102b06004803603604081101561029a57600080fd5b506001600160a01b03813516906020013561082b565b005b6102ba610906565b60408051918252519081900360200190f35b6102b0600480360360608110156102e257600080fd5b506001600160a01b03813581169160208101359091169060400135610917565b6102ba6004803603604081101561031857600080fd5b506001600160a01b03813516906020013561096e565b6102b06004803603606081101561034457600080fd5b506001600160a01b0381358116916020810135909116906040013561099f565b6102ba6004803603602081101561037a57600080fd5b50356109ba565b6102686004803603602081101561039757600080fd5b50356109d6565b6101d6610a04565b6102ba600480360360208110156103bc57600080fd5b50356001600160a01b0316610a65565b6102b0610acd565b6102ba600480360360408110156103ea57600080fd5b81019060208101813564010000000081111561040557600080fd5b82018360208201111561041757600080fd5b8035906020019184600183028401116401000000008311171561043957600080fd5b91908080601f016020809104026020016040519081016040528093929190818152602001838380828437600092019190915250929594936020810193503591505064010000000081111561048c57600080fd5b82018360208201111561049e57600080fd5b803590602001918460018302840111640100000000831117156104c057600080fd5b91908080601f016020809104026020016040519081016040528093929190818152602001838380828437600092019190915250929550610b8b945050505050565b610268610c52565b6101d6610c61565b6102b06004803603604081101561052757600080fd5b506001600160a01b0381351690602001351515610cc2565b6101d66004803603602081101561055557600080fd5b5035610dc7565b6101d66004803603602081101561057257600080fd5b5035610fa3565b6102b06004803603608081101561058f57600080fd5b6001600160a01b038235811692602081013590911691604082013591908101906080810160608201356401000000008111156105ca57600080fd5b8201836020820111156105dc57600080fd5b803590602001918460018302840111640100000000831117156105fe57600080fd5b91908080601f01602080910402602001604051908101604052809392919081815260200183838082843760009201919091525092955061103e945050505050565b6101d66004803603602081101561065557600080fd5b503561109c565b6106796004803603602081101561067257600080fd5b50356116b1565b604080516001600160e81b03199092168252519081900360200190f35b6101ba600480360360408110156106ac57600080fd5b506001600160a01b03813581169160200135166116c6565b6102ba6116f4565b6102b0600480360360208110156106e257600080fd5b50356001600160a01b031661183b565b6102ba6004803603602081101561070857600080fd5b5035611950565b6001600160e01b0319811660009081526020819052604090205460ff165b919050565b60068054604080516020601f60026000196101006001881615020190951694909404938401819004810282018101909252828152606093909290918301828280156107be5780601f10610793576101008083540402835291602001916107be565b820191906000526020600020905b8154815290600101906020018083116107a157829003601f168201915b505050505090505b90565b60006107d482611962565b61080f5760405162461bcd60e51b815260040180806020018281038252602c815260200180612e0c602c913960400191505060405180910390fd5b506000908152600460205260409020546001600160a01b031690565b6000610836826109d6565b9050806001600160a01b0316836001600160a01b031614156108895760405162461bcd60e51b8152600401808060200182810382526021815260200180612f916021913960400191505060405180910390fd5b806001600160a01b031661089b611975565b6001600160a01b031614806108bc57506108bc816108b7611975565b6116c6565b6108f75760405162461bcd60e51b8152600401808060200182810382526038815260200180612cb56038913960400191505060405180910390fd5b6109018383611979565b505050565b600061091260026119e7565b905090565b610928610922611975565b826119f2565b6109635760405162461bcd60e51b8152600401808060200182810382526031815260200180612fb26031913960400191505060405180910390fd5b610901838383611a96565b6001600160a01b0382166000908152600160205260408120610996908363ffffffff611bf416565b90505b92915050565b6109018383836040518060200160405280600081525061103e565b6000806109ce60028463ffffffff611c0016565b509392505050565b600061099982604051806060016040528060298152602001612d17602991396002919063ffffffff611c1c16565b60098054604080516020601f60026000196101006001881615020190951694909404938401819004810282018101909252828152606093909290918301828280156107be5780601f10610793576101008083540402835291602001916107be565b60006001600160a01b038216610aac5760405162461bcd60e51b815260040180806020018281038252602a815260200180612ced602a913960400191505060405180910390fd5b6001600160a01b0382166000908152600160205260409020610999906119e7565b610ad5611975565b6001600160a01b0316610ae6610c52565b6001600160a01b031614610b41576040805162461bcd60e51b815260206004820181905260248201527f4f776e61626c653a2063616c6c6572206973206e6f7420746865206f776e6572604482015290519081900360640190fd5b600a546040516000916001600160a01b0316907f8be0079c531659141344cd1fd0a4f28419497f9722a3daafe3b4186f6b6457e0908390a3600a80546001600160a01b0319169055565b600080836040516020018082805190602001908083835b60208310610bc15780518252601f199092019160209182019101610ba2565b6001836020036101000a038019825116818451168082178552505050505050905001915050604051602081830303815290604052805190602001209050610c08600b611c33565b6000610c14600b611c3c565b9050610c203382611c40565b610c2a8186611d7a565b6000818152600e602090815260409091208551610c4992870190612a80565b50949350505050565b600a546001600160a01b031690565b60078054604080516020601f60026000196101006001881615020190951694909404938401819004810282018101909252828152606093909290918301828280156107be5780601f10610793576101008083540402835291602001916107be565b610cca611975565b6001600160a01b0316826001600160a01b03161415610d30576040805162461bcd60e51b815260206004820152601960248201527f4552433732313a20617070726f766520746f2063616c6c657200000000000000604482015290519081900360640190fd5b8060056000610d3d611975565b6001600160a01b03908116825260208083019390935260409182016000908120918716808252919093529120805460ff191692151592909217909155610d81611975565b60408051841515815290516001600160a01b0392909216917f17307eab39ab6107e8899845ad3d59bd9653f200f220920489ca2b5937696c319181900360200190a35050565b6000818152600c60205260409020546060908190610df19060e81b6001600160e81b031916611ddd565b6000848152600d6020526040902054610e0990611ee6565b6040516c1e339034b21e9132bcb298911f60991b6020820190815290602d01606a612ec28239606a01606b612b3b8239631e17b39f60e11b606b8201526c1e339034b21e913432b0b2111f60991b606f8201526f3c656c6c697073652066696c6c3d222360801b607c8201528351608c9091019060208501908083835b60208310610ea55780518252601f199092019160209182019101610e86565b6001836020036101000a03801982511681845116808217855250505050505090500180612f55603c9139603c0182805190602001908083835b60208310610efd5780518252601f199092019160209182019101610ede565b5181516020939093036101000a60001901801990911692169190911790527f222072793d2235312e383030363522207374726f6b653d2223303030222f3e00920191825250631e17b39f60e11b601f8201526c1e339034b21e9132bcb299111f60991b6023820152603001606a612da28239606a016067612bfe8239631e17b39f60e11b606782015260408051808303604b018152606b90920190529695505050505050565b600e6020908152600091825260409182902080548351601f6002600019610100600186161502019093169290920491820184900484028101840190945280845290918301828280156110365780601f1061100b57610100808354040283529160200191611036565b820191906000526020600020905b81548152906001019060200180831161101957829003601f168201915b505050505081565b61104f611049611975565b836119f2565b61108a5760405162461bcd60e51b8152600401808060200182810382526031815260200180612fb26031913960400191505060405180910390fd5b61109684848484611fb8565b50505050565b60606110a782611962565b6110e4576040805162461bcd60e51b81526020600482015260096024820152681b9bdd08195e1a5cdd60ba1b604482015290519081900360640190fd5b60606110ef83611ee6565b604051602001808064446f67202360d81b81525060050182805190602001908083835b602083106111315780518252601f199092019160209182019101611112565b51815160209384036101000a60001901801990921691161790526040805192909401828103601f1901835284526000898152600c90915292909220549194506060935061118c92505060e81b6001600160e81b031916611ddd565b6000858152600d60205260409020546111a49061200a565b60405160200180807f5468697320446f672069732074686520636f6c6f72202300000000000000000081525060170183805190602001908083835b602083106111fe5780518252601f1990920191602091820191016111df565b51815160209384036101000a6000190180199092169116179052750103bb4ba3410309031b43ab13134b732b9b99037b3160551b919093019081528451601690910192850191508083835b602083106112685780518252601f199092019160209182019101611249565b6001836020036101000a038019825116818451168082178552505050505050905001806221212160e81b81525060030192505050604051602081830303815290604052905060606112c06112bb866120e3565b612176565b905061161983836112d088611ee6565b6000898152600c60205260409020546112f59060e81b6001600160e81b031916611ddd565b60008a8152600d602052604090205461130d9061200a565b611330601461131b8d6109d6565b6001600160a01b03169063ffffffff6122c216565b876040516020018080683d913730b6b2911d1160b91b81525060090188805190602001908083835b602083106113775780518252601f199092019160209182019101611358565b51815160209384036101000a600019018019909216911617905271111610113232b9b1b934b83a34b7b7111d1160711b9190930190815289516012909101928a0191508083835b602083106113dd5780518252601f1990920191602091820191016113be565b6001836020036101000a038019825116818451168082178552505050505050905001806130246029913960290186805190602001908083835b602083106114355780518252601f199092019160209182019101611416565b6001836020036101000a03801982511681845116808217855250505050505090500180612e8d6035913960350185805190602001908083835b6020831061148d5780518252601f19909201916020918201910161146e565b6001836020036101000a03801982511681845116808217855250505050505090500180612e646029913960290184805190602001908083835b602083106114e55780518252601f1990920191602091820191016114c6565b51815160209384036101000a60001901801990921691161790526c3eae96101137bbb732b9111d1160991b919093019081528551600d90910192860191508083835b602083106115465780518252601f199092019160209182019101611527565b51815160209384036101000a60001901801990921691161790526c1116101134b6b0b3b2911d101160991b919093019081527f646174613a696d6167652f7376672b786d6c3b6261736536342c000000000000600d8201528451602790910192850191508083835b602083106115cd5780518252601f1990920191602091820191016115ae565b6001836020036101000a0380198251168184511680821785525050505050509050018061227d60f01b815250600201975050505050505050604051602081830303815290604052612176565b60405160200180807f646174613a6170706c69636174696f6e2f6a736f6e3b6261736536342c000000815250601d0182805190602001908083835b602083106116735780518252601f199092019160209182019101611654565b6001836020036101000a0380198251168184511680821785525050505050509050019150506040516020818303038152906040529350505050919050565b600c6020526000908152604090205460e81b81565b6001600160a01b03918216600090815260056020908152604080832093909416825291909152205460ff1690565b6000600f54421061173b576040805162461bcd60e51b815260206004820152600c60248201526b444f4e45204d494e54494e4760a01b604482015290519081900360640190fd5b611745600b611c33565b6000611751600b611c3c565b905061175d3382611c40565b6040805160001943014060208083019190915233606090811b8385015230901b60548301526068808301859052835180840390910181526088909201909252805191012060108160021a60f81b6001600160f81b031916901c60088260011a60f81b6001600160f81b031916901c82600080868152600c60205260409020805462ffffff19169290911a60f81b6001600160f81b031916929092176001600160f01b0319169290921760e81c91909117905560ff8160031a6037028161181f57fe5b6000848152600d60205260409020919004602301905550919050565b611843611975565b6001600160a01b0316611854610c52565b6001600160a01b0316146118af576040805162461bcd60e51b815260206004820181905260248201527f4f776e61626c653a2063616c6c6572206973206e6f7420746865206f776e6572604482015290519081900360640190fd5b6001600160a01b0381166118f45760405162461bcd60e51b8152600401808060200182810382526026815260200180612bd86026913960400191505060405180910390fd5b600a546040516001600160a01b038084169216907f8be0079c531659141344cd1fd0a4f28419497f9722a3daafe3b4186f6b6457e090600090a3600a80546001600160a01b0319166001600160a01b0392909216919091179055565b600d6020526000908152604090205481565b600061099960028363ffffffff6123cc16565b3390565b600081815260046020526040902080546001600160a01b0319166001600160a01b03841690811790915581906119ae826109d6565b6001600160a01b03167f8c5be1e5ebec7d5bd14f71427d1e84f3dd0314c0f7b2291e5b200ac8c7c3b92560405160405180910390a45050565b600061099982611c3c565b60006119fd82611962565b611a385760405162461bcd60e51b815260040180806020018281038252602c815260200180612c89602c913960400191505060405180910390fd5b6000611a43836109d6565b9050806001600160a01b0316846001600160a01b03161480611a7e5750836001600160a01b0316611a73846107c9565b6001600160a01b0316145b80611a8e5750611a8e81856116c6565b949350505050565b826001600160a01b0316611aa9826109d6565b6001600160a01b031614611aee5760405162461bcd60e51b8152600401808060200182810382526029815260200180612f2c6029913960400191505060405180910390fd5b6001600160a01b038216611b335760405162461bcd60e51b8152600401808060200182810382526024815260200180612c656024913960400191505060405180910390fd5b611b3e838383610901565b611b49600082611979565b6001600160a01b0383166000908152600160205260409020611b71908263ffffffff6123d816565b506001600160a01b0382166000908152600160205260409020611b9a908263ffffffff6123e416565b50611bad6002828463ffffffff6123f016565b5080826001600160a01b0316846001600160a01b03167fddf252ad1be2c89b69c2b068fc378daa952ba7f163c4a11628f55a4df523b3ef60405160405180910390a4505050565b60006109968383612406565b6000808080611c0f868661246a565b9097909650945050505050565b6000611c298484846124e5565b90505b9392505050565b80546001019055565b5490565b6001600160a01b038216611c9b576040805162461bcd60e51b815260206004820181905260248201527f4552433732313a206d696e7420746f20746865207a65726f2061646472657373604482015290519081900360640190fd5b611ca481611962565b15611cf6576040805162461bcd60e51b815260206004820152601c60248201527f4552433732313a20746f6b656e20616c7265616479206d696e74656400000000604482015290519081900360640190fd5b611d0260008383610901565b6001600160a01b0382166000908152600160205260409020611d2a908263ffffffff6123e416565b50611d3d6002828463ffffffff6123f016565b5060405181906001600160a01b038416906000907fddf252ad1be2c89b69c2b068fc378daa952ba7f163c4a11628f55a4df523b3ef908290a45050565b611d8382611962565b611dbe5760405162461bcd60e51b815260040180806020018281038252602c815260200180612e38602c913960400191505060405180910390fd5b6000828152600860209081526040909120825161090192840190612a80565b60408051600680825281830190925260609182919060208201818036833701905050905060005b6003811015611edf576f181899199a1a9b1b9c1cb0b131b232b360811b848260038110611e2d57fe5b1a600f1660108110611e3b57fe5b1a60f81b828260020260010181518110611e5157fe5b60200101906001600160f81b031916908160001a9053506f181899199a1a9b1b9c1cb0b131b232b360811b6004858360038110611e8a57fe5b1a60f81b6001600160f81b031916901c60f81c600f1660ff1660108110611ead57fe5b1a60f81b828260020281518110611ec057fe5b60200101906001600160f81b031916908160001a905350600101611e04565b5092915050565b606081611f0b57506040805180820190915260018152600360fc1b602082015261072d565b8160005b8115611f2357600101600a82049150611f0f565b60608167ffffffffffffffff81118015611f3c57600080fd5b506040519080825280601f01601f191660200182016040528015611f67576020820181803683370190505b50859350905060001982015b8315610c4957600a840660300160f81b82828060019003935081518110611f9657fe5b60200101906001600160f81b031916908160001a905350600a84049350611f73565b611fc3848484611a96565b611fcf848484846125af565b6110965760405162461bcd60e51b8152600401808060200182810382526032815260200180612ba66032913960400191505060405180910390fd5b60608161202f57506040805180820190915260018152600360fc1b602082015261072d565b8160005b811561204757600101600a82049150612033565b60608167ffffffffffffffff8111801561206057600080fd5b506040519080825280601f01601f19166020018201604052801561208b576020820181803683370190505b509050815b8515610c4957600019016000600a8704600a028703603001905060008160f81b9050808484815181106120bf57fe5b60200101906001600160f81b031916908160001a905350600a880497505050612090565b6060806120ef83610dc7565b604051602001806041612fe3823960410182805190602001908083835b6020831061212b5780518252601f19909201916020918201910161210c565b5181516020939093036101000a6000190180199091169216919091179052651e17b9bb339f60d11b920191825250604080518083036019190181526006909201905295945050505050565b6060815160001415612197575060408051602081019091526000815261072d565b6060604051806060016040528060408152602001612d40604091399050600060038451600201816121c457fe5b04600402905060608160200167ffffffffffffffff811180156121e657600080fd5b506040519080825280601f01601f191660200182016040528015612211576020820181803683370190505b509050818152600183018586518101602084015b8183101561227d576003830192508251603f8160121c168501518253600182019150603f81600c1c168501518253600182019150603f8160061c168501518253600182019150603f8116850151825350600101612225565b60038951066001811461229757600281146122a8576122b4565b613d3d60f01b6001198301526122b4565b603d60f81b6000198301525b509398975050505050505050565b6060808260020260020167ffffffffffffffff811180156122e257600080fd5b506040519080825280601f01601f19166020018201604052801561230d576020820181803683370190505b509050600360fc1b8160008151811061232257fe5b60200101906001600160f81b031916908160001a905350600f60fb1b8160018151811061234b57fe5b60200101906001600160f81b031916908160001a905350600160028402015b60018111156109ce576f181899199a1a9b1b9c1cb0b131b232b360811b85600f166010811061239557fe5b1a60f81b8282815181106123a557fe5b60200101906001600160f81b031916908160001a90535060049490941c936000190161236a565b6000610996838361272f565b60006109968383612747565b6000610996838361280d565b6000611c2984846001600160a01b038516612857565b815460009082106124485760405162461bcd60e51b8152600401808060200182810382526022815260200180612b196022913960400191505060405180910390fd5b82600001828154811061245757fe5b9060005260206000200154905092915050565b8154600090819083106124ae5760405162461bcd60e51b8152600401808060200182810382526022815260200180612d806022913960400191505060405180910390fd5b60008460000184815481106124bf57fe5b906000526020600020906002020190508060000154816001015492509250509250929050565b600082815260018401602052604081205482816125805760405162461bcd60e51b81526004018080602001828103825283818151815260200191508051906020019080838360005b8381101561254557818101518382015260200161252d565b50505050905090810190601f1680156125725780820380516001836020036101000a031916815260200191505b509250505060405180910390fd5b5084600001600182038154811061259357fe5b9060005260206000209060020201600101549150509392505050565b60006125c3846001600160a01b03166128ee565b6125cf57506001611a8e565b60606126f5630a85bd0160e11b6125e4611975565b88878760405160240180856001600160a01b03166001600160a01b03168152602001846001600160a01b03166001600160a01b0316815260200183815260200180602001828103825283818151815260200191508051906020019080838360005b8381101561265d578181015183820152602001612645565b50505050905090810190601f16801561268a5780820380516001836020036101000a031916815260200191505b5095505050505050604051602081830303815290604052906001600160e01b0319166020820180516001600160e01b038381831617835250505050604051806060016040528060328152602001612ba6603291396001600160a01b038816919063ffffffff6128f416565b9050600081806020019051602081101561270e57600080fd5b50516001600160e01b031916630a85bd0160e11b1492505050949350505050565b60009081526001919091016020526040902054151590565b60008181526001830160205260408120548015612803578354600019808301919081019060009087908390811061277a57fe5b906000526020600020015490508087600001848154811061279757fe5b6000918252602080832090910192909255828152600189810190925260409020908401905586548790806127c757fe5b60019003818190600052602060002001600090559055866001016000878152602001908152602001600020600090556001945050505050610999565b6000915050610999565b6000612819838361272f565b61284f57508154600181810184556000848152602080822090930184905584548482528286019093526040902091909155610999565b506000610999565b6000828152600184016020526040812054806128bc575050604080518082018252838152602080820184815286546001818101895560008981528481209551600290930290950191825591519082015586548684528188019092529290912055611c2c565b828560000160018303815481106128cf57fe5b9060005260206000209060020201600101819055506000915050611c2c565b3b151590565b6060611c29848460008585612908856128ee565b612959576040805162461bcd60e51b815260206004820152601d60248201527f416464726573733a2063616c6c20746f206e6f6e2d636f6e7472616374000000604482015290519081900360640190fd5b60006060866001600160a01b031685876040518082805190602001908083835b602083106129985780518252601f199092019160209182019101612979565b6001836020036101000a03801982511681845116808217855250505050505090500191505060006040518083038185875af1925050503d80600081146129fa576040519150601f19603f3d011682016040523d82523d6000602084013e6129ff565b606091505b5091509150612a0f828286612a1a565b979650505050505050565b60608315612a29575081611c2c565b825115612a395782518084602001fd5b60405162461bcd60e51b815260206004820181815284516024840152845185939192839260440191908501908083836000831561254557818101518382015260200161252d565b828054600181600116156101000203166002900490600052602060002090601f016020900481019282601f10612ac157805160ff1916838001178555612aee565b82800160010185558215612aee579182015b82811115612aee578251825591602001919060010190612ad3565b50612afa929150612afe565b5090565b6107c691905b80821115612afa5760008155600101612b0456fe456e756d657261626c655365743a20696e646578206f7574206f6620626f756e64733c656c6c697073652072793d22332e35222072783d22322e35222069643d227376675f33222063793d223135342e35222063783d223137332e3522207374726f6b652d77696474683d223322207374726f6b653d2223303030222066696c6c3d2223303030303030222f3e4552433732313a207472616e7366657220746f206e6f6e20455243373231526563656976657220696d706c656d656e7465724f776e61626c653a206e6577206f776e657220697320746865207a65726f20616464726573733c656c6c697073652072793d22332e35222072783d2233222069643d227376675f34222063793d223136392e35222063783d2232303822207374726f6b652d77696474683d2233222066696c6c3d222330303030303022207374726f6b653d2223303030222f3e4552433732313a207472616e7366657220746f20746865207a65726f20616464726573734552433732313a206f70657261746f7220717565727920666f72206e6f6e6578697374656e7420746f6b656e4552433732313a20617070726f76652063616c6c6572206973206e6f74206f776e6572206e6f7220617070726f76656420666f7220616c6c4552433732313a2062616c616e636520717565727920666f7220746865207a65726f20616464726573734552433732313a206f776e657220717565727920666f72206e6f6e6578697374656e7420746f6b656e4142434445464748494a4b4c4d4e4f505152535455565758595a6162636465666768696a6b6c6d6e6f707172737475767778797a303132333435363738392b2f456e756d657261626c654d61703a20696e646578206f7574206f6620626f756e64733c656c6c69707365207374726f6b652d77696474683d2233222072793d2232392e35222072783d2232392e35222069643d227376675f32222063793d223136382e35222063783d223230392e3522207374726f6b653d2223303030222066696c6c3d2223666666222f3e4552433732313a20617070726f76656420717565727920666f72206e6f6e6578697374656e7420746f6b656e4552433732314d657461646174613a2055524920736574206f66206e6f6e6578697374656e7420746f6b656e227d2c7b2274726169745f74797065223a20226368756262696e657373222c202276616c7565223a20222c202261747472696275746573223a205b7b2274726169745f74797065223a2022636f6c6f72222c202276616c7565223a2022233c656c6c69707365207374726f6b652d77696474683d2233222072793d2232392e35222072783d2232392e35222069643d227376675f31222063793d223135342e35222063783d223138312e3522207374726f6b653d2223303030222066696c6c3d2223666666222f3e4552433732313a207472616e73666572206f6620746f6b656e2074686174206973206e6f74206f776e22207374726f6b652d77696474683d2233222063783d223230342e35222063793d223231312e3830303635222069643d227376675f35222072783d224552433732313a20617070726f76616c20746f2063757272656e74206f776e65724552433732313a207472616e736665722063616c6c6572206973206e6f74206f776e6572206e6f7220617070726f7665643c7376672077696474683d2234303022206865696768743d223430302220786d6c6e733d22687474703a2f2f7777772e77332e6f72672f323030302f737667223e222c202265787465726e616c5f75726c223a2268747470733a2f2f666f757273776f7264732e696f2fa2646970667358221220a7e510de2f582556cfca0dd974feac498439fb400d9da18d7abdfc25d138fb0764736f6c63430006070033",
  "linkReferences": {},
  "deployedLinkReferences": {}
}