{
  "_format": "hh-sol-artifact-1",
  "contractName": "DogeClubSVG",
  "sourceName": "contracts/DogeClubSVG.sol",
  "abi": [
    {
      "inputs": [],
      "stateMutability": "nonpayable",
      "type": "constructor"
    },
    {
      "anonymous": false,
      "inputs": [
        {
          "indexed": true,
          "internalType": "address",
          "name": "owner",
          "type": "address"
        },
        {
          "indexed": true,
          "internalType": "address",
          "name": "approved",
          "type": "address"
        },
        {
          "indexed": true,
          "internalType": "uint256",
          "name": "tokenId",
          "type": "uint256"
        }
      ],
      "name": "Approval",
      "type": "event"
    },
    {
      "anonymous": false,
      "inputs": [
        {
          "indexed": true,
          "internalType": "address",
          "name": "owner",
          "type": "address"
        },
        {
          "indexed": true,
          "internalType": "address",
          "name": "operator",
          "type": "address"
        },
        {
          "indexed": false,
          "internalType": "bool",
          "name": "approved",
          "type": "bool"
        }
      ],
      "name": "ApprovalForAll",
      "type": "event"
    },
    {
      "anonymous": false,
      "inputs": [
        {
          "indexed": true,
          "internalType": "address",
          "name": "previousOwner",
          "type": "address"
        },
        {
          "indexed": true,
          "internalType": "address",
          "name": "newOwner",
          "type": "address"
        }
      ],
      "name": "OwnershipTransferred",
      "type": "event"
    },
    {
      "anonymous": false,
      "inputs": [
        {
          "indexed": true,
          "internalType": "address",
          "name": "from",
          "type": "address"
        },
        {
          "indexed": true,
          "internalType": "address",
          "name": "to",
          "type": "address"
        },
        {
          "indexed": true,
          "internalType": "uint256",
          "name": "tokenId",
          "type": "uint256"
        }
      ],
      "name": "Transfer",
      "type": "event"
    },
    {
      "inputs": [
        {
          "internalType": "address",
          "name": "to",
          "type": "address"
        },
        {
          "internalType": "uint256",
          "name": "tokenId",
          "type": "uint256"
        }
      ],
      "name": "approve",
      "outputs": [],
      "stateMutability": "nonpayable",
      "type": "function"
    },
    {
      "inputs": [
        {
          "internalType": "address",
          "name": "owner",
          "type": "address"
        }
      ],
      "name": "balanceOf",
      "outputs": [
        {
          "internalType": "uint256",
          "name": "",
          "type": "uint256"
        }
      ],
      "stateMutability": "view",
      "type": "function"
    },
    {
      "inputs": [],
      "name": "baseURI",
      "outputs": [
        {
          "internalType": "string",
          "name": "",
          "type": "string"
        }
      ],
      "stateMutability": "view",
      "type": "function"
    },
    {
      "inputs": [
        {
          "internalType": "uint256",
          "name": "",
          "type": "uint256"
        }
      ],
      "name": "burgers",
      "outputs": [
        {
          "internalType": "uint256",
          "name": "",
          "type": "uint256"
        }
      ],
      "stateMutability": "view",
      "type": "function"
    },
    {
      "inputs": [
        {
          "internalType": "uint256",
          "name": "",
          "type": "uint256"
        }
      ],
      "name": "color",
      "outputs": [
        {
          "internalType": "bytes3",
          "name": "",
          "type": "bytes3"
        }
      ],
      "stateMutability": "view",
      "type": "function"
    },
    {
      "inputs": [
        {
          "internalType": "uint256",
          "name": "tokenId",
          "type": "uint256"
        }
      ],
      "name": "getApproved",
      "outputs": [
        {
          "internalType": "address",
          "name": "",
          "type": "address"
        }
      ],
      "stateMutability": "view",
      "type": "function"
    },
    {
      "inputs": [
        {
          "internalType": "address",
          "name": "owner",
          "type": "address"
        },
        {
          "internalType": "address",
          "name": "operator",
          "type": "address"
        }
      ],
      "name": "isApprovedForAll",
      "outputs": [
        {
          "internalType": "bool",
          "name": "",
          "type": "bool"
        }
      ],
      "stateMutability": "view",
      "type": "function"
    },
    {
      "inputs": [],
      "name": "mintItem",
      "outputs": [
        {
          "internalType": "uint256",
          "name": "",
          "type": "uint256"
        }
      ],
      "stateMutability": "nonpayable",
      "type": "function"
    },
    {
      "inputs": [],
      "name": "name",
      "outputs": [
        {
          "internalType": "string",
          "name": "",
          "type": "string"
        }
      ],
      "stateMutability": "view",
      "type": "function"
    },
    {
      "inputs": [],
      "name": "owner",
      "outputs": [
        {
          "internalType": "address",
          "name": "",
          "type": "address"
        }
      ],
      "stateMutability": "view",
      "type": "function"
    },
    {
      "inputs": [
        {
          "internalType": "uint256",
          "name": "tokenId",
          "type": "uint256"
        }
      ],
      "name": "ownerOf",
      "outputs": [
        {
          "internalType": "address",
          "name": "",
          "type": "address"
        }
      ],
      "stateMutability": "view",
      "type": "function"
    },
    {
      "inputs": [
        {
          "internalType": "uint256",
          "name": "id",
          "type": "uint256"
        }
      ],
      "name": "renderTokenById",
      "outputs": [
        {
          "internalType": "string",
          "name": "",
          "type": "string"
        }
      ],
      "stateMutability": "view",
      "type": "function"
    },
    {
      "inputs": [],
      "name": "renounceOwnership",
      "outputs": [],
      "stateMutability": "nonpayable",
      "type": "function"
    },
    {
      "inputs": [
        {
          "internalType": "address",
          "name": "from",
          "type": "address"
        },
        {
          "internalType": "address",
          "name": "to",
          "type": "address"
        },
        {
          "internalType": "uint256",
          "name": "tokenId",
          "type": "uint256"
        }
      ],
      "name": "safeTransferFrom",
      "outputs": [],
      "stateMutability": "nonpayable",
      "type": "function"
    },
    {
      "inputs": [
        {
          "internalType": "address",
          "name": "from",
          "type": "address"
        },
        {
          "internalType": "address",
          "name": "to",
          "type": "address"
        },
        {
          "internalType": "uint256",
          "name": "tokenId",
          "type": "uint256"
        },
        {
          "internalType": "bytes",
          "name": "_data",
          "type": "bytes"
        }
      ],
      "name": "safeTransferFrom",
      "outputs": [],
      "stateMutability": "nonpayable",
      "type": "function"
    },
    {
      "inputs": [
        {
          "internalType": "address",
          "name": "operator",
          "type": "address"
        },
        {
          "internalType": "bool",
          "name": "approved",
          "type": "bool"
        }
      ],
      "name": "setApprovalForAll",
      "outputs": [],
      "stateMutability": "nonpayable",
      "type": "function"
    },
    {
      "inputs": [
        {
          "internalType": "bytes4",
          "name": "interfaceId",
          "type": "bytes4"
        }
      ],
      "name": "supportsInterface",
      "outputs": [
        {
          "internalType": "bool",
          "name": "",
          "type": "bool"
        }
      ],
      "stateMutability": "view",
      "type": "function"
    },
    {
      "inputs": [],
      "name": "symbol",
      "outputs": [
        {
          "internalType": "string",
          "name": "",
          "type": "string"
        }
      ],
      "stateMutability": "view",
      "type": "function"
    },
    {
      "inputs": [
        {
          "internalType": "uint256",
          "name": "index",
          "type": "uint256"
        }
      ],
      "name": "tokenByIndex",
      "outputs": [
        {
          "internalType": "uint256",
          "name": "",
          "type": "uint256"
        }
      ],
      "stateMutability": "view",
      "type": "function"
    },
    {
      "inputs": [
        {
          "internalType": "address",
          "name": "owner",
          "type": "address"
        },
        {
          "internalType": "uint256",
          "name": "index",
          "type": "uint256"
        }
      ],
      "name": "tokenOfOwnerByIndex",
      "outputs": [
        {
          "internalType": "uint256",
          "name": "",
          "type": "uint256"
        }
      ],
      "stateMutability": "view",
      "type": "function"
    },
    {
      "inputs": [
        {
          "internalType": "uint256",
          "name": "id",
          "type": "uint256"
        }
      ],
      "name": "tokenURI",
      "outputs": [
        {
          "internalType": "string",
          "name": "",
          "type": "string"
        }
      ],
      "stateMutability": "view",
      "type": "function"
    },
    {
      "inputs": [],
      "name": "totalSupply",
      "outputs": [
        {
          "internalType": "uint256",
          "name": "",
          "type": "uint256"
        }
      ],
      "stateMutability": "view",
      "type": "function"
    },
    {
      "inputs": [
        {
          "internalType": "address",
          "name": "from",
          "type": "address"
        },
        {
          "internalType": "address",
          "name": "to",
          "type": "address"
        },
        {
          "internalType": "uint256",
          "name": "tokenId",
          "type": "uint256"
        }
      ],
      "name": "transferFrom",
      "outputs": [],
      "stateMutability": "nonpayable",
      "type": "function"
    },
    {
      "inputs": [
        {
          "internalType": "address",
          "name": "newOwner",
          "type": "address"
        }
      ],
      "name": "transferOwnership",
      "outputs": [],
      "stateMutability": "nonpayable",
      "type": "function"
    }
  ],
  "bytecode": "0x6080604052426201518001600e553480156200001a57600080fd5b50604080518082018252600c81526b446f6765436c75622053564760a01b60208083019190915282518084019093526002835261444360f01b9083015290620000736301ffc9a760e01b6001600160e01b036200015c16565b815162000088906006906020850190620001e6565b5080516200009e906007906020840190620001e6565b50620000ba6380ac58cd60e01b6001600160e01b036200015c16565b620000d5635b5e139f60e01b6001600160e01b036200015c16565b620000f063780e9d6360e01b6001600160e01b036200015c16565b5060009050620001086001600160e01b03620001e116565b600a80546001600160a01b0319166001600160a01b038316908117909155604051919250906000907f8be0079c531659141344cd1fd0a4f28419497f9722a3daafe3b4186f6b6457e0908290a35062000288565b6001600160e01b03198082161415620001bc576040805162461bcd60e51b815260206004820152601c60248201527f4552433136353a20696e76616c696420696e7465726661636520696400000000604482015290519081900360640190fd5b6001600160e01b0319166000908152602081905260409020805460ff19166001179055565b335b90565b828054600181600116156101000203166002900490600052602060002090601f016020900481019282601f106200022957805160ff191683800117855562000259565b8280016001018555821562000259579182015b82811115620002595782518255916020019190600101906200023c565b50620002679291506200026b565b5090565b620001e391905b8082111562000267576000815560010162000272565b612c8880620002986000396000f3fe608060405234801561001057600080fd5b50600436106101585760003560e01c806370a08231116100c3578063b88d4fde1161007c578063b88d4fde14610416578063c87b56dd146104dc578063d4e28c9c146104f9578063e985e9c514610533578063eb93406b14610561578063f2fde38b1461056957610158565b806370a082311461038d578063715018a6146103b35780638da5cb5b146103bb57806395d89b41146103c3578063a22cb465146103cb578063a2d6c6da146103f957610158565b80632f745c59116101155780632f745c59146102cc57806342842e0e146102f85780634f6ccce71461032e5780636352211e1461034b5780636ad1d753146103685780636c0360eb1461038557610158565b806301ffc9a71461015d57806306fdde0314610198578063081812fc14610215578063095ea7b31461024e57806318160ddd1461027c57806323b872dd14610296575b600080fd5b6101846004803603602081101561017357600080fd5b50356001600160e01b03191661058f565b604080519115158252519081900360200190f35b6101a06105b2565b6040805160208082528351818301528351919283929083019185019080838360005b838110156101da5781810151838201526020016101c2565b50505050905090810190601f1680156102075780820380516001836020036101000a031916815260200191505b509250505060405180910390f35b6102326004803603602081101561022b57600080fd5b5035610648565b604080516001600160a01b039092168252519081900360200190f35b61027a6004803603604081101561026457600080fd5b506001600160a01b0381351690602001356106aa565b005b610284610785565b60408051918252519081900360200190f35b61027a600480360360608110156102ac57600080fd5b506001600160a01b03813581169160208101359091169060400135610796565b610284600480360360408110156102e257600080fd5b506001600160a01b0381351690602001356107ed565b61027a6004803603606081101561030e57600080fd5b506001600160a01b0381358116916020810135909116906040013561081e565b6102846004803603602081101561034457600080fd5b5035610839565b6102326004803603602081101561036157600080fd5b5035610855565b6102846004803603602081101561037e57600080fd5b5035610883565b6101a0610895565b610284600480360360208110156103a357600080fd5b50356001600160a01b03166108f6565b61027a61095e565b610232610a1c565b6101a0610a2b565b61027a600480360360408110156103e157600080fd5b506001600160a01b0381351690602001351515610a8c565b6101a06004803603602081101561040f57600080fd5b5035610b91565b61027a6004803603608081101561042c57600080fd5b6001600160a01b0382358116926020810135909116916040820135919081019060808101606082013564010000000081111561046757600080fd5b82018360208201111561047957600080fd5b8035906020019184600183028401116401000000008311171561049b57600080fd5b91908080601f016020809104026020016040519081016040528093929190818152602001838380828437600092019190915250929550610d6d945050505050565b6101a0600480360360208110156104f257600080fd5b5035610dcb565b6105166004803603602081101561050f57600080fd5b50356113ea565b604080516001600160e81b03199092168252519081900360200190f35b6101846004803603604081101561054957600080fd5b506001600160a01b03813581169160200135166113ff565b61028461142d565b61027a6004803603602081101561057f57600080fd5b50356001600160a01b0316611574565b6001600160e01b0319811660009081526020819052604090205460ff165b919050565b60068054604080516020601f600260001961010060018816150201909516949094049384018190048102820181019092528281526060939092909183018282801561063e5780601f106106135761010080835404028352916020019161063e565b820191906000526020600020905b81548152906001019060200180831161062157829003601f168201915b5050505050905090565b600061065382611689565b61068e5760405162461bcd60e51b815260040180806020018281038252602c815260200180612a41602c913960400191505060405180910390fd5b506000908152600460205260409020546001600160a01b031690565b60006106b582610855565b9050806001600160a01b0316836001600160a01b031614156107085760405162461bcd60e51b8152600401808060200182810382526021815260200180612b716021913960400191505060405180910390fd5b806001600160a01b031661071a61169c565b6001600160a01b0316148061073b575061073b8161073661169c565b6113ff565b6107765760405162461bcd60e51b81526004018080602001828103825260388152602001806128ea6038913960400191505060405180910390fd5b61078083836116a0565b505050565b6000610791600261170e565b905090565b6107a76107a161169c565b82611719565b6107e25760405162461bcd60e51b8152600401808060200182810382526031815260200180612b926031913960400191505060405180910390fd5b6107808383836117bd565b6001600160a01b0382166000908152600160205260408120610815908363ffffffff61191b16565b90505b92915050565b61078083838360405180602001604052806000815250610d6d565b60008061084d60028463ffffffff61192716565b509392505050565b60006108188260405180606001604052806029815260200161294c602991396002919063ffffffff61194316565b600d6020526000908152604090205481565b60098054604080516020601f600260001961010060018816150201909516949094049384018190048102820181019092528281526060939092909183018282801561063e5780601f106106135761010080835404028352916020019161063e565b60006001600160a01b03821661093d5760405162461bcd60e51b815260040180806020018281038252602a815260200180612922602a913960400191505060405180910390fd5b6001600160a01b03821660009081526001602052604090206108189061170e565b61096661169c565b6001600160a01b0316610977610a1c565b6001600160a01b0316146109d2576040805162461bcd60e51b815260206004820181905260248201527f4f776e61626c653a2063616c6c6572206973206e6f7420746865206f776e6572604482015290519081900360640190fd5b600a546040516000916001600160a01b0316907f8be0079c531659141344cd1fd0a4f28419497f9722a3daafe3b4186f6b6457e0908390a3600a80546001600160a01b0319169055565b600a546001600160a01b031690565b60078054604080516020601f600260001961010060018816150201909516949094049384018190048102820181019092528281526060939092909183018282801561063e5780601f106106135761010080835404028352916020019161063e565b610a9461169c565b6001600160a01b0316826001600160a01b03161415610afa576040805162461bcd60e51b815260206004820152601960248201527f4552433732313a20617070726f766520746f2063616c6c657200000000000000604482015290519081900360640190fd5b8060056000610b0761169c565b6001600160a01b03908116825260208083019390935260409182016000908120918716808252919093529120805460ff191692151592909217909155610b4b61169c565b60408051841515815290516001600160a01b0392909216917f17307eab39ab6107e8899845ad3d59bd9653f200f220920489ca2b5937696c319181900360200190a35050565b6000818152600c60205260409020546060908190610bbb9060e81b6001600160e81b03191661195a565b6000848152600d6020526040902054610bd390611a63565b6040516c1e339034b21e9132bcb298911f60991b6020820190815290602d01606a612aa28239606a01606b6127708239631e17b39f60e11b606b8201526c1e339034b21e913432b0b2111f60991b606f8201526f3c656c6c697073652066696c6c3d222360801b607c8201528351608c9091019060208501908083835b60208310610c6f5780518252601f199092019160209182019101610c50565b6001836020036101000a03801982511681845116808217855250505050505090500180612b35603c9139603c0182805190602001908083835b60208310610cc75780518252601f199092019160209182019101610ca8565b5181516020939093036101000a60001901801990911692169190911790527f222072793d2235312e383030363522207374726f6b653d2223303030222f3e00920191825250631e17b39f60e11b601f8201526c1e339034b21e9132bcb299111f60991b6023820152603001606a6129d78239606a0160676128338239631e17b39f60e11b606782015260408051808303604b018152606b90920190529695505050505050565b610d7e610d7861169c565b83611719565b610db95760405162461bcd60e51b8152600401808060200182810382526031815260200180612b926031913960400191505060405180910390fd5b610dc584848484611b3e565b50505050565b6060610dd682611689565b610e13576040805162461bcd60e51b81526020600482015260096024820152681b9bdd08195e1a5cdd60ba1b604482015290519081900360640190fd5b6060610e1e83611a63565b604051602001808067536572676579202360c01b81525060080182805190602001908083835b60208310610e635780518252601f199092019160209182019101610e44565b51815160209384036101000a60001901801990921691161790526040805192909401828103601f1901835284526000898152600c909152929092205491945060609350610ebe92505060e81b6001600160e81b03191661195a565b6000858152600d6020526040902054610ed690611b90565b60405160200180807f54686973205365726765792069732074686520636f6c6f722023000000000000815250601a0183805190602001908083835b60208310610f305780518252601f199092019160209182019101610f11565b51815160209384036101000a60001901801990921691161790527f207769746820612062757267657220636f756e74206f66200000000000000000919093019081528451601890910192850191508083835b60208310610fa15780518252601f199092019160209182019101610f82565b6001836020036101000a038019825116818451168082178552505050505050905001806221212160e81b8152506003019250505060405160208183030381529060405290506060610ff9610ff486611c69565b611cfc565b9050611352838361100988611a63565b6000898152600c602052604090205461102e9060e81b6001600160e81b03191661195a565b60008a8152600d602052604090205461104690611b90565b61106960146110548d610855565b6001600160a01b03169063ffffffff611e4816565b876040516020018080683d913730b6b2911d1160b91b81525060090188805190602001908083835b602083106110b05780518252601f199092019160209182019101611091565b51815160209384036101000a600019018019909216911617905271111610113232b9b1b934b83a34b7b7111d1160711b9190930190815289516012909101928a0191508083835b602083106111165780518252601f1990920191602091820191016110f7565b6001836020036101000a03801982511681845116808217855250505050505090500180612c2a6029913960290186805190602001908083835b6020831061116e5780518252601f19909201916020918201910161114f565b6001836020036101000a03801982511681845116808217855250505050505090500180612a6d6035913960350185805190602001908083835b602083106111c65780518252601f1990920191602091820191016111a7565b6001836020036101000a03801982511681845116808217855250505050505090500180612c046026913960260184805190602001908083835b6020831061121e5780518252601f1990920191602091820191016111ff565b51815160209384036101000a60001901801990921691161790526c3eae96101137bbb732b9111d1160991b919093019081528551600d90910192860191508083835b6020831061127f5780518252601f199092019160209182019101611260565b51815160209384036101000a60001901801990921691161790526c1116101134b6b0b3b2911d101160991b919093019081527f646174613a696d6167652f7376672b786d6c3b6261736536342c000000000000600d8201528451602790910192850191508083835b602083106113065780518252601f1990920191602091820191016112e7565b6001836020036101000a0380198251168184511680821785525050505050509050018061227d60f01b815250600201975050505050505050604051602081830303815290604052611cfc565b60405160200180807f646174613a6170706c69636174696f6e2f6a736f6e3b6261736536342c000000815250601d0182805190602001908083835b602083106113ac5780518252601f19909201916020918201910161138d565b6001836020036101000a0380198251168184511680821785525050505050509050019150506040516020818303038152906040529350505050919050565b600c6020526000908152604090205460e81b81565b6001600160a01b03918216600090815260056020908152604080832093909416825291909152205460ff1690565b6000600e544210611474576040805162461bcd60e51b815260206004820152600c60248201526b444f4e45204d494e54494e4760a01b604482015290519081900360640190fd5b61147e600b611f52565b600061148a600b611f5b565b90506114963382611f5f565b6040805160001943014060208083019190915233606090811b8385015230901b60548301526068808301859052835180840390910181526088909201909252805191012060108160021a60f81b6001600160f81b031916901c60088260011a60f81b6001600160f81b031916901c82600080868152600c60205260409020805462ffffff19169290911a60f81b6001600160f81b031916929092176001600160f01b0319169290921760e81c91909117905560ff8160031a6037028161155857fe5b6000848152600d60205260409020919004602301905550919050565b61157c61169c565b6001600160a01b031661158d610a1c565b6001600160a01b0316146115e8576040805162461bcd60e51b815260206004820181905260248201527f4f776e61626c653a2063616c6c6572206973206e6f7420746865206f776e6572604482015290519081900360640190fd5b6001600160a01b03811661162d5760405162461bcd60e51b815260040180806020018281038252602681526020018061280d6026913960400191505060405180910390fd5b600a546040516001600160a01b038084169216907f8be0079c531659141344cd1fd0a4f28419497f9722a3daafe3b4186f6b6457e090600090a3600a80546001600160a01b0319166001600160a01b0392909216919091179055565b600061081860028363ffffffff61209916565b3390565b600081815260046020526040902080546001600160a01b0319166001600160a01b03841690811790915581906116d582610855565b6001600160a01b03167f8c5be1e5ebec7d5bd14f71427d1e84f3dd0314c0f7b2291e5b200ac8c7c3b92560405160405180910390a45050565b600061081882611f5b565b600061172482611689565b61175f5760405162461bcd60e51b815260040180806020018281038252602c8152602001806128be602c913960400191505060405180910390fd5b600061176a83610855565b9050806001600160a01b0316846001600160a01b031614806117a55750836001600160a01b031661179a84610648565b6001600160a01b0316145b806117b557506117b581856113ff565b949350505050565b826001600160a01b03166117d082610855565b6001600160a01b0316146118155760405162461bcd60e51b8152600401808060200182810382526029815260200180612b0c6029913960400191505060405180910390fd5b6001600160a01b03821661185a5760405162461bcd60e51b815260040180806020018281038252602481526020018061289a6024913960400191505060405180910390fd5b611865838383610780565b6118706000826116a0565b6001600160a01b0383166000908152600160205260409020611898908263ffffffff6120a516565b506001600160a01b03821660009081526001602052604090206118c1908263ffffffff6120b116565b506118d46002828463ffffffff6120bd16565b5080826001600160a01b0316846001600160a01b03167fddf252ad1be2c89b69c2b068fc378daa952ba7f163c4a11628f55a4df523b3ef60405160405180910390a4505050565b600061081583836120d3565b60008080806119368686612137565b9097909650945050505050565b60006119508484846121b2565b90505b9392505050565b60408051600680825281830190925260609182919060208201818036833701905050905060005b6003811015611a5c576f181899199a1a9b1b9c1cb0b131b232b360811b8482600381106119aa57fe5b1a600f16601081106119b857fe5b1a60f81b8282600202600101815181106119ce57fe5b60200101906001600160f81b031916908160001a9053506f181899199a1a9b1b9c1cb0b131b232b360811b6004858360038110611a0757fe5b1a60f81b6001600160f81b031916901c60f81c600f1660ff1660108110611a2a57fe5b1a60f81b828260020281518110611a3d57fe5b60200101906001600160f81b031916908160001a905350600101611981565b5092915050565b606081611a8857506040805180820190915260018152600360fc1b60208201526105ad565b8160005b8115611aa057600101600a82049150611a8c565b60608167ffffffffffffffff81118015611ab957600080fd5b506040519080825280601f01601f191660200182016040528015611ae4576020820181803683370190505b50859350905060001982015b8315611b3557600a840660300160f81b82828060019003935081518110611b1357fe5b60200101906001600160f81b031916908160001a905350600a84049350611af0565b50949350505050565b611b498484846117bd565b611b558484848461227c565b610dc55760405162461bcd60e51b81526004018080602001828103825260328152602001806127db6032913960400191505060405180910390fd5b606081611bb557506040805180820190915260018152600360fc1b60208201526105ad565b8160005b8115611bcd57600101600a82049150611bb9565b60608167ffffffffffffffff81118015611be657600080fd5b506040519080825280601f01601f191660200182016040528015611c11576020820181803683370190505b509050815b8515611b3557600019016000600a8704600a028703603001905060008160f81b905080848481518110611c4557fe5b60200101906001600160f81b031916908160001a905350600a880497505050611c16565b606080611c7583610b91565b604051602001806041612bc3823960410182805190602001908083835b60208310611cb15780518252601f199092019160209182019101611c92565b5181516020939093036101000a6000190180199091169216919091179052651e17b9bb339f60d11b920191825250604080518083036019190181526006909201905295945050505050565b6060815160001415611d1d57506040805160208101909152600081526105ad565b606060405180606001604052806040815260200161297560409139905060006003845160020181611d4a57fe5b04600402905060608160200167ffffffffffffffff81118015611d6c57600080fd5b506040519080825280601f01601f191660200182016040528015611d97576020820181803683370190505b509050818152600183018586518101602084015b81831015611e03576003830192508251603f8160121c168501518253600182019150603f81600c1c168501518253600182019150603f8160061c168501518253600182019150603f8116850151825350600101611dab565b600389510660018114611e1d5760028114611e2e57611e3a565b613d3d60f01b600119830152611e3a565b603d60f81b6000198301525b509398975050505050505050565b6060808260020260020167ffffffffffffffff81118015611e6857600080fd5b506040519080825280601f01601f191660200182016040528015611e93576020820181803683370190505b509050600360fc1b81600081518110611ea857fe5b60200101906001600160f81b031916908160001a905350600f60fb1b81600181518110611ed157fe5b60200101906001600160f81b031916908160001a905350600160028402015b600181111561084d576f181899199a1a9b1b9c1cb0b131b232b360811b85600f1660108110611f1b57fe5b1a60f81b828281518110611f2b57fe5b60200101906001600160f81b031916908160001a90535060049490941c9360001901611ef0565b80546001019055565b5490565b6001600160a01b038216611fba576040805162461bcd60e51b815260206004820181905260248201527f4552433732313a206d696e7420746f20746865207a65726f2061646472657373604482015290519081900360640190fd5b611fc381611689565b15612015576040805162461bcd60e51b815260206004820152601c60248201527f4552433732313a20746f6b656e20616c7265616479206d696e74656400000000604482015290519081900360640190fd5b61202160008383610780565b6001600160a01b0382166000908152600160205260409020612049908263ffffffff6120b116565b5061205c6002828463ffffffff6120bd16565b5060405181906001600160a01b038416906000907fddf252ad1be2c89b69c2b068fc378daa952ba7f163c4a11628f55a4df523b3ef908290a45050565b600061081583836123fc565b60006108158383612414565b600061081583836124da565b600061195084846001600160a01b038516612524565b815460009082106121155760405162461bcd60e51b815260040180806020018281038252602281526020018061274e6022913960400191505060405180910390fd5b82600001828154811061212457fe5b9060005260206000200154905092915050565b81546000908190831061217b5760405162461bcd60e51b81526004018080602001828103825260228152602001806129b56022913960400191505060405180910390fd5b600084600001848154811061218c57fe5b906000526020600020906002020190508060000154816001015492509250509250929050565b6000828152600184016020526040812054828161224d5760405162461bcd60e51b81526004018080602001828103825283818151815260200191508051906020019080838360005b838110156122125781810151838201526020016121fa565b50505050905090810190601f16801561223f5780820380516001836020036101000a031916815260200191505b509250505060405180910390fd5b5084600001600182038154811061226057fe5b9060005260206000209060020201600101549150509392505050565b6000612290846001600160a01b03166125bb565b61229c575060016117b5565b60606123c2630a85bd0160e11b6122b161169c565b88878760405160240180856001600160a01b03166001600160a01b03168152602001846001600160a01b03166001600160a01b0316815260200183815260200180602001828103825283818151815260200191508051906020019080838360005b8381101561232a578181015183820152602001612312565b50505050905090810190601f1680156123575780820380516001836020036101000a031916815260200191505b5095505050505050604051602081830303815290604052906001600160e01b0319166020820180516001600160e01b0383818316178352505050506040518060600160405280603281526020016127db603291396001600160a01b038816919063ffffffff6125c116565b905060008180602001905160208110156123db57600080fd5b50516001600160e01b031916630a85bd0160e11b1492505050949350505050565b60009081526001919091016020526040902054151590565b600081815260018301602052604081205480156124d0578354600019808301919081019060009087908390811061244757fe5b906000526020600020015490508087600001848154811061246457fe5b60009182526020808320909101929092558281526001898101909252604090209084019055865487908061249457fe5b60019003818190600052602060002001600090559055866001016000878152602001908152602001600020600090556001945050505050610818565b6000915050610818565b60006124e683836123fc565b61251c57508154600181810184556000848152602080822090930184905584548482528286019093526040902091909155610818565b506000610818565b600082815260018401602052604081205480612589575050604080518082018252838152602080820184815286546001818101895560008981528481209551600290930290950191825591519082015586548684528188019092529290912055611953565b8285600001600183038154811061259c57fe5b9060005260206000209060020201600101819055506000915050611953565b3b151590565b60606119508484600085856125d5856125bb565b612626576040805162461bcd60e51b815260206004820152601d60248201527f416464726573733a2063616c6c20746f206e6f6e2d636f6e7472616374000000604482015290519081900360640190fd5b60006060866001600160a01b031685876040518082805190602001908083835b602083106126655780518252601f199092019160209182019101612646565b6001836020036101000a03801982511681845116808217855250505050505090500191505060006040518083038185875af1925050503d80600081146126c7576040519150601f19603f3d011682016040523d82523d6000602084013e6126cc565b606091505b50915091506126dc8282866126e7565b979650505050505050565b606083156126f6575081611953565b8251156127065782518084602001fd5b60405162461bcd60e51b81526020600482018181528451602484015284518593919283926044019190850190808383600083156122125781810151838201526020016121fa56fe456e756d657261626c655365743a20696e646578206f7574206f6620626f756e64733c656c6c697073652072793d22332e35222072783d22322e35222069643d227376675f33222063793d223135342e35222063783d223137332e3522207374726f6b652d77696474683d223322207374726f6b653d2223303030222066696c6c3d2223303030303030222f3e4552433732313a207472616e7366657220746f206e6f6e20455243373231526563656976657220696d706c656d656e7465724f776e61626c653a206e6577206f776e657220697320746865207a65726f20616464726573733c656c6c697073652072793d22332e35222072783d2233222069643d227376675f34222063793d223136392e35222063783d2232303822207374726f6b652d77696474683d2233222066696c6c3d222330303030303022207374726f6b653d2223303030222f3e4552433732313a207472616e7366657220746f20746865207a65726f20616464726573734552433732313a206f70657261746f7220717565727920666f72206e6f6e6578697374656e7420746f6b656e4552433732313a20617070726f76652063616c6c6572206973206e6f74206f776e6572206e6f7220617070726f76656420666f7220616c6c4552433732313a2062616c616e636520717565727920666f7220746865207a65726f20616464726573734552433732313a206f776e657220717565727920666f72206e6f6e6578697374656e7420746f6b656e4142434445464748494a4b4c4d4e4f505152535455565758595a6162636465666768696a6b6c6d6e6f707172737475767778797a303132333435363738392b2f456e756d657261626c654d61703a20696e646578206f7574206f6620626f756e64733c656c6c69707365207374726f6b652d77696474683d2233222072793d2232392e35222072783d2232392e35222069643d227376675f32222063793d223136382e35222063783d223230392e3522207374726f6b653d2223303030222066696c6c3d2223666666222f3e4552433732313a20617070726f76656420717565727920666f72206e6f6e6578697374656e7420746f6b656e222c202261747472696275746573223a205b7b2274726169745f74797065223a2022636f6c6f72222c202276616c7565223a2022233c656c6c69707365207374726f6b652d77696474683d2233222072793d2232392e35222072783d2232392e35222069643d227376675f31222063793d223135342e35222063783d223138312e3522207374726f6b653d2223303030222066696c6c3d2223666666222f3e4552433732313a207472616e73666572206f6620746f6b656e2074686174206973206e6f74206f776e22207374726f6b652d77696474683d2233222063783d223230342e35222063793d223231312e3830303635222069643d227376675f35222072783d224552433732313a20617070726f76616c20746f2063757272656e74206f776e65724552433732313a207472616e736665722063616c6c6572206973206e6f74206f776e6572206e6f7220617070726f7665643c7376672077696474683d2234303022206865696768743d223430302220786d6c6e733d22687474703a2f2f7777772e77332e6f72672f323030302f737667223e227d2c7b2274726169745f74797065223a202262757267657273222c202276616c7565223a20222c202265787465726e616c5f75726c223a2268747470733a2f2f666f757273776f7264732e696f2fa26469706673582212206e39b98c0260158c2ae0f37598cee827a801f20460927f616c25127851045bed64736f6c63430006070033",
  "linkReferences": {},
  "deployedLinkReferences": {}
}